{
  "contractName": "TimelockWallet",
  "abi": [
    {
      "inputs": [],
      "stateMutability": "nonpayable",
      "type": "constructor"
    },
    {
      "anonymous": false,
      "inputs": [
        {
          "indexed": false,
          "internalType": "uint256",
          "name": "lockTime",
          "type": "uint256"
        },
        {
          "indexed": false,
          "internalType": "uint256",
          "name": "countdown",
          "type": "uint256"
        },
        {
          "indexed": false,
          "internalType": "uint256",
          "name": "unlockTime",
          "type": "uint256"
        },
        {
          "indexed": false,
          "internalType": "uint256",
          "name": "amount",
          "type": "uint256"
        }
      ],
      "name": "Deposited",
      "type": "event"
    },
    {
      "anonymous": false,
      "inputs": [
        {
          "indexed": false,
          "internalType": "uint256",
          "name": "withdrawTime",
          "type": "uint256"
        }
      ],
      "name": "Withdrawn",
      "type": "event"
    },
    {
      "inputs": [],
      "name": "countdown",
      "outputs": [
        {
          "internalType": "uint256",
          "name": "",
          "type": "uint256"
        }
      ],
      "stateMutability": "view",
      "type": "function",
      "constant": true
    },
    {
      "inputs": [],
      "name": "lockTime",
      "outputs": [
        {
          "internalType": "uint256",
          "name": "",
          "type": "uint256"
        }
      ],
      "stateMutability": "view",
      "type": "function",
      "constant": true
    },
    {
      "inputs": [],
      "name": "owner",
      "outputs": [
        {
          "internalType": "address payable",
          "name": "",
          "type": "address"
        }
      ],
      "stateMutability": "view",
      "type": "function",
      "constant": true
    },
    {
      "inputs": [],
      "name": "unlockTime",
      "outputs": [
        {
          "internalType": "uint256",
          "name": "",
          "type": "uint256"
        }
      ],
      "stateMutability": "view",
      "type": "function",
      "constant": true
    },
    {
      "inputs": [],
      "name": "getBalance",
      "outputs": [
        {
          "internalType": "uint256",
          "name": "",
          "type": "uint256"
        }
      ],
      "stateMutability": "view",
      "type": "function",
      "constant": true
    },
    {
      "inputs": [
        {
          "internalType": "uint256",
          "name": "_countdown",
          "type": "uint256"
        }
      ],
      "name": "deposit",
      "outputs": [],
      "stateMutability": "payable",
      "type": "function",
      "payable": true
    },
    {
      "inputs": [],
      "name": "withdraw",
      "outputs": [],
      "stateMutability": "nonpayable",
      "type": "function"
    },
    {
      "inputs": [],
      "name": "canWithdraw",
      "outputs": [
        {
          "internalType": "bool",
          "name": "",
          "type": "bool"
        }
      ],
      "stateMutability": "view",
      "type": "function",
      "constant": true
    }
  ],
  "bytecode": "0x608060405234801561001057600080fd5b50336000806101000a81548173ffffffffffffffffffffffffffffffffffffffff021916908373ffffffffffffffffffffffffffffffffffffffff160217905550610c19806100606000396000f3fe60806040526004361061007b5760003560e01c80638da5cb5b1161004e5780638da5cb5b14610118578063b51459fe14610143578063b6b55f251461016e578063cba888721461018a5761007b565b80630d6680871461008057806312065fe0146100ab578063251c1aa3146100d65780633ccfd60b14610101575b600080fd5b34801561008c57600080fd5b506100956101b5565b6040516100a2919061091e565b60405180910390f35b3480156100b757600080fd5b506100c06101bb565b6040516100cd919061091e565b60405180910390f35b3480156100e257600080fd5b506100eb610252565b6040516100f8919061091e565b60405180910390f35b34801561010d57600080fd5b50610116610258565b005b34801561012457600080fd5b5061012d610468565b60405161013a9190610808565b60405180910390f35b34801561014f57600080fd5b5061015861048c565b6040516101659190610823565b60405180910390f35b610188600480360381019061018391906106b9565b6104e0565b005b34801561019657600080fd5b5061019f61069e565b6040516101ac919061091e565b60405180910390f35b60015481565b60008060009054906101000a900473ffffffffffffffffffffffffffffffffffffffff1673ffffffffffffffffffffffffffffffffffffffff163373ffffffffffffffffffffffffffffffffffffffff161461024c576040517f08c379a00000000000000000000000000000000000000000000000000000000081526004016102439061089e565b60405180910390fd5b47905090565b60025481565b60008054906101000a900473ffffffffffffffffffffffffffffffffffffffff1673ffffffffffffffffffffffffffffffffffffffff163373ffffffffffffffffffffffffffffffffffffffff16146102e6576040517f08c379a00000000000000000000000000000000000000000000000000000000081526004016102dd9061089e565b60405180910390fd5b6000600354141580156102fc5750600060015414155b61033b576040517f08c379a0000000000000000000000000000000000000000000000000000000008152600401610332906108de565b60405180910390fd5b60035460015461034b919061098f565b42101561038d576040517f08c379a00000000000000000000000000000000000000000000000000000000081526004016103849061087e565b60405180910390fd5b600047116103d0576040517f08c379a00000000000000000000000000000000000000000000000000000000081526004016103c79061085e565b60405180910390fd5b6000600381905550600060018190555060006002819055503373ffffffffffffffffffffffffffffffffffffffff166108fc479081150290604051600060405180830381858888f1935050505015801561042e573d6000803e3d6000fd5b507f430648de173157e069201c943adb2d4e340e7cf5b27b1b09c9cb852f03d63b564260405161045e919061091e565b60405180910390a1565b60008054906101000a900473ffffffffffffffffffffffffffffffffffffffff1681565b600080600154141580156104a35750600060035414155b80156104be57506003546001546104ba919061098f565b4210155b80156104ca5750600047115b156104d857600190506104dd565b600090505b90565b60008054906101000a900473ffffffffffffffffffffffffffffffffffffffff1673ffffffffffffffffffffffffffffffffffffffff163373ffffffffffffffffffffffffffffffffffffffff161461056e576040517f08c379a00000000000000000000000000000000000000000000000000000000081526004016105659061089e565b60405180910390fd5b600a8110156105b2576040517f08c379a00000000000000000000000000000000000000000000000000000000081526004016105a9906108fe565b60405180910390fd5b600034116105f5576040517f08c379a00000000000000000000000000000000000000000000000000000000081526004016105ec906108be565b60405180910390fd5b60006001541461063a576040517f08c379a00000000000000000000000000000000000000000000000000000000081526004016106319061083e565b60405180910390fd5b806003819055504260018190555080600154610656919061098f565b6002819055507f1ec55d9e15c44189f574f4c7598877f9f4db58852439702a7c97979f1e755ad04282600254346040516106939493929190610939565b60405180910390a150565b60035481565b6000813590506106b381610bcc565b92915050565b6000602082840312156106cf576106ce610a5c565b5b60006106dd848285016106a4565b91505092915050565b6106ef816109e5565b82525050565b6106fe816109f7565b82525050565b6000610711601b8361097e565b915061071c82610a61565b602082019050919050565b6000610734601e8361097e565b915061073f82610a8a565b602082019050919050565b600061075760218361097e565b915061076282610ab3565b604082019050919050565b600061077a60168361097e565b915061078582610b02565b602082019050919050565b600061079d601c8361097e565b91506107a882610b2b565b602082019050919050565b60006107c0601b8361097e565b91506107cb82610b54565b602082019050919050565b60006107e3602e8361097e565b91506107ee82610b7d565b604082019050919050565b61080281610a23565b82525050565b600060208201905061081d60008301846106e6565b92915050565b600060208201905061083860008301846106f5565b92915050565b6000602082019050818103600083015261085781610704565b9050919050565b6000602082019050818103600083015261087781610727565b9050919050565b600060208201905081810360008301526108978161074a565b9050919050565b600060208201905081810360008301526108b78161076d565b9050919050565b600060208201905081810360008301526108d781610790565b9050919050565b600060208201905081810360008301526108f7816107b3565b9050919050565b60006020820190508181036000830152610917816107d6565b9050919050565b600060208201905061093360008301846107f9565b92915050565b600060808201905061094e60008301876107f9565b61095b60208301866107f9565b61096860408301856107f9565b61097560608301846107f9565b95945050505050565b600082825260208201905092915050565b600061099a82610a23565b91506109a583610a23565b9250827fffffffffffffffffffffffffffffffffffffffffffffffffffffffffffffffff038211156109da576109d9610a2d565b5b828201905092915050565b60006109f082610a03565b9050919050565b60008115159050919050565b600073ffffffffffffffffffffffffffffffffffffffff82169050919050565b6000819050919050565b7f4e487b7100000000000000000000000000000000000000000000000000000000600052601160045260246000fd5b600080fd5b7f596f75206861766520616c7265616479206465706f7369746564210000000000600082015250565b7f596f752068617665206e6f2066756e647320746f207769746864726177210000600082015250565b7f5468652066756e64732043414e4e4f5420626520756e6c6f636b65642079657460008201527f2100000000000000000000000000000000000000000000000000000000000000602082015250565b7f596f7520617265204e4f5420746865206f776e65722100000000000000000000600082015250565b7f596f75206d757374206465706f73697420736f6d652066756e64732100000000600082015250565b7f596f7520646964204e4f54206465706f736974206265666f7265210000000000600082015250565b7f596f75206d7573742073746f7265207468652066756e647320666f722061742060008201527f6c65617374203130207365637321000000000000000000000000000000000000602082015250565b610bd581610a23565b8114610be057600080fd5b5056fea2646970667358221220559e24c1a797ccfe7ee2cb80d1362c207ef8265012dd4d4cf0f6e635b481522964736f6c63430008060033",
  "immutableReferences": {},
  "source": "// SPDX-License-Identifier: MIT\npragma solidity ^0.8.0;\n\ncontract TimelockWallet{\n    \n    address payable public owner;\n    \n    // the moment user deposits (in Unix timestamp)\n    uint public lockTime;\n    \n    // the moment user withdraws his funds (in Unix timestamp)\n    uint public unlockTime;\n    \n    // the duration the user wants to lock his funds\n    uint public countdown;\n    \n    constructor(){\n        owner = payable(msg.sender);\n    }\n    \n    modifier onlyOwner{\n        require(msg.sender == owner, 'You are NOT the owner!');\n        _;\n    }\n    \n    event Deposited(uint lockTime, uint countdown, uint unlockTime, uint amount);\n    event Withdrawn(uint withdrawTime);\n    \n    // This returns the CONTRACTS's ether balance, NOT this USER's ether balance!\n    function getBalance() public view onlyOwner returns (uint) {\n        return address(this).balance;\n    }\n    \n    function deposit(uint _countdown) public payable onlyOwner {\n        \n        // require a certain period of time, say 10 secs, 1 day or 1 month\n        require(_countdown >= 10, 'You must store the funds for at least 10 secs!');\n        \n        // require the amount to be greater than 0\n        require(msg.value > 0, 'You must deposit some funds!');\n        \n        // require the owner has not deposited any funds yet\n        require(lockTime == 0, 'You have already deposited!');\n        \n        // input how long we want to lock the funds\n        countdown = _countdown;\n        \n        // record this moment's Unix timestamp\n        lockTime = block.timestamp;\n        \n        // calculate unlock time\n        unlockTime = lockTime + _countdown;\n        \n        emit Deposited(block.timestamp, _countdown, unlockTime, msg.value);\n    }\n    \n    // Transfer ALL ether FROM smart contract TO owner.\n    function withdraw() public onlyOwner {\n        \n        // require the countdown time and deposit time are not zero\n        require(countdown !=0 && lockTime !=0, 'You did NOT deposit before!');\n        \n        // require the current time has already passed the coundown time\n        require(block.timestamp >= lockTime+countdown, 'The funds CANNOT be unlocked yet!');\n\n        // require there has some funds in the smart contract\n        require(address(this).balance > 0, 'You have no funds to withdraw!');\n        \n        // reset countdown FIRST, to prevent re-entrancy attack\n        countdown = 0;\n        \n        // reset deposit time FIRST, to prevent re-entrancy attack\n        lockTime = 0;\n        \n        // reset unlock time FIRST, to prevent re-entrancy attack\n        unlockTime = 0;\n        \n        // send owner all the funds back\n        payable(msg.sender).transfer(address(this).balance);\n        \n        // emit the moment when the user withdraws\n        emit Withdrawn(block.timestamp);\n    }\n    \n    function canWithdraw() public view returns(bool) {\n        \n        if(lockTime!=0 && countdown!=0 && block.timestamp >= lockTime+countdown && address(this).balance > 0){\n            // if it has already passed the coundown time now, return true\n            return true;\n            \n        } else {\n            // if it has not passed the coundown time yet, return \n            return false;\n        }\n    }\n    \n}\n\n\n//   10**18 = 1000000000000000000\n\n\n",
  "sourcePath": "/Users/tim/_Dapp_ex/ETB6_TimelockWallet/src/contracts/TimelockWallet.sol",
  "compiler": {
    "name": "solc",
    "version": "0.8.6+commit.11564f7e.Emscripten.clang"
  },
  "schemaVersion": "3.4.1",
  "updatedAt": "2021-07-20T17:56:44.699Z",
  "networkType": "ethereum",
  "devdoc": {
    "kind": "dev",
    "methods": {},
    "version": 1
  },
  "userdoc": {
    "kind": "user",
    "methods": {},
    "version": 1
  }
}